:100000000C9434000C9446000C9468020C94460046
:100010000C9446000C9446000C9446000C94460048
:100020000C9446000C9446000C9446000C94D804A2
:100030000C9446000C9446000C9446000C94460028
:100040000C94C8020C9446000C9446000C94460094
:100050000C9446000C9446000C9446000C94460008
:100060000C9446000C94460011241FBECFEFD8E03C
:10007000DEBFCDBF22E0A0E0B1E001C01D92AF32F3
:10008000B207E1F70E9410050C94BC070C94000025
:100090005C9800005C9A83E08A95F1F700005C9818
:1000A00081E08093000108958FEF84B9549A5398AA
:1000B000089584E08093690082E08DBB089581E01B
:1000C00085BD16BC80936E0008951092C50083E331
:1000D0008093C4001092C00088E18093C10086E044
:1000E0008093C200089580E480937C0087E8809329
:1000F0007A00089584E690E00E94A2078130F1F032
:1001000066E980E090E00E94AA0765E081E090E067
:100110000E94AA0768E182E090E00E94AA076AE5CF
:1001200083E090E00E94AA0760E084E090E00E94F3
:10013000AA0761E084E690E00E94AA0708950E9461
:1001400054000E9459000E945F000E9465000E94B6
:1001500073000E947A00089580E090E00E94A20758
:100160008093840181E090E00E94A20780930901BE
:1001700082E090E00E94A20790E090932D0280938D
:100180002C0283E090E00E94A20780932E0284E07C
:1001900090E00E94A20780937E0185E690E00E9495
:1001A000A20780937D01880F8E5F85B90895ECE7E3
:1001B000F0E090E4908390818770982B9083EAE739
:1001C000F0E0808180648083808186FDFDCF809116
:1001D000780090917900089580E00E94D70021E096
:1001E000892B09F420E020932B0281E00E94D700A4
:1001F00021E0892B09F420E0209383010895E0ECAD
:10020000F0E0908195FFFDCF8093C60008950E9495
:10021000EC0080912B02813021F4809108010E9432
:10022000FF0080918301813021F4809107010E94B9
:10023000FF00609185017091860180918701909106
:1002400088010E941E06862F0E94FF000895EF92EB
:10025000FF920F931F93CF93DF93CDB7DEB72C9709
:100260000FB6F894DEBF0FBECDBF0E94EC0083E452
:1002700089838FE68A838DE68B838FE58C8382E585
:100280008D8385E68E839EE69F8388878CE78987AA
:10029000909183019A878B8780912B028C878E01A6
:1002A0000F5F1F4F7E018DE0E80EF11CF801819178
:1002B0008F010E94FF000E151F05C1F72C960FB687
:1002C000F894DEBF0FBECDBFDF91CF911F910F918C
:1002D000FF90EF9008958F929F92AF92BF92CF922E
:1002E000DF92EF92FF920F931F93CF93DF930F2E26
:1002F000FAE0EF2EF1E0FF2EF02DC9E8D1E00F2E4D
:10030000F9E2CF2EF2E0DF2EF02D812C912C54015A
:1003100000E010E0F701819191917F01080F191F12
:100320002991399149915991C501B4010E943B0528
:100330004B015C01CC15DD0569F7980132952295DA
:100340002F7023273F702327AEE3BAE00E94930764
:100350008093080120E030E040E252E4C501B4019E
:100360000E94AC050E941E0660930701DF91CF91A9
:100370001F910F91FF90EF90DF90CF90BF90AF90C3
:100380009F908F900895CF93C0910601C83208F0D6
:1003900046C080E00E94D700EC2FF0E0EE0FFF1F78
:1003A000E65FFE4F9183808381E00E94D700BC010D
:1003B00080E090E00E944D0620E030E44CE950E4FB
:1003C0000E94040720E030E84BE354E40E943A0521
:1003D00020E030E040E251E40E94AC0520E030E053
:1003E00048EC51E40E943B0560937F0170938001CB
:1003F000809381019093820120910601E22FF0E029
:10040000EE0FFF1FEE0FFF1FE757FE4F6083718354
:100410008283938381E0820F8093060104C010924F
:1004200006010E946B01CF910895809184010E9482
:10043000FF00809109010E94FF0080912C020E9420
:10044000FF0080912E020E94FF0080917E010E9499
:10045000FF00089560E084E690E00E94AA070E94F1
:100460007A000E94AC0008958230C9F028F48823F5
:1004700041F0813069F008958330E1F0843009F172
:1004800008956093840180E090E00E94AA07089597
:100490006093090181E090E00E94AA070895862FE9
:1004A00090E090932D0280932C0282E090E00E94D5
:1004B000AA07089560932E0283E090E00E94AA07A5
:1004C000089560937E0184E090E00E94AA07089559
:1004D0001F920F920FB60F9211242F933F934F93B9
:1004E0005F936F937F938F939F93AF93BF93EF939C
:1004F000FF93809100018130D1F58091010181113C
:100500000DC081E08093010116BC1092020110928F
:100510000301109204011092050129C010920101FB
:1005200026B58091020190910301A0910401B09140
:100530000501BA2FA92F982F8827BC01CD01620F82
:10054000711D811D911D25EA33E040E050E00E94BD
:100550007107CA01B9010E944D066093850170932D
:100560008601809387019093880110920001FF918A
:10057000EF91BF91AF919F918F917F916F915F911B
:100580004F913F912F910F900FBE0F901F90189594
:100590001F920F920FB60F9211248F939F93AF93D8
:1005A000BF9380910101813099F480910201909173
:1005B0000301A0910401B09105010196A11DB11D97
:1005C0008093020190930301A0930401B09305016D
:1005D000BF91AF919F918F910F900FBE0F901F9081
:1005E00018950F931F93CF93DF938C0180915A013D
:1005F00090915B01892B81F0EAE5F1E021E030E0A8
:10060000822FE901A781B0852F5F3F4F3796AB2B33
:10061000B9F7853021F415C0C0E0D0E080E0FE01DC
:10062000EE0FFF1FEE0FFF1FEE0FFF1FEC1BFD0B6A
:10063000E65AFE4F1183008373836283558344839C
:100640001682DF91CF911F910F9108958091290219
:1006500081110FC084E085B910922A0281E0809355
:10066000290242E350E060E070E08CE494E00E94F4
:10067000F102089580912A0281110FC082E085B9AC
:100680001092290281E080932A0242E350E060E068
:1006900070E08CE494E00E94F102089580917E0164
:1006A000882309F49FC0813019F580917D01811163
:1006B0000EC08091070190E020912C0230912D0214
:1006C000281739070CF08EC00E9426030895813048
:1006D00009F088C08091070190E020912C023091B0
:1006E0002D02821793070CF07DC00E943A030895F3
:1006F0008230D9F480917D0181110AC09091080166
:1007000080912E02891708F06DC00E94260308957B
:10071000813009F067C09091080180912E029817EE
:1007200008F060C00E943A030895833071F580910B
:100730007D01811114C09091080180912E028917CA
:1007400058F08091070190E020912C0230912D0209
:10075000281739070CF046C00E94260308958130FF
:1007600009F040C09091080180912E029817D0F5B1
:100770008091070190E020912C0230912D02821788
:10078000930784F50E943A030895843059F58091C7
:100790007D01811113C09091080180912E0289176B
:1007A00008F58091070190E020912C0230912D02F4
:1007B00028173907BCF40E9426030895813091F46C
:1007C0009091080180912E02981750F080910701B6
:1007D00090E020912C0230912D028217930714F49F
:1007E0000E943A0308958091C00088230CF043C012
:1007F0008091C600893CE9F138F4823009F1883CE7
:1008000021F18130C1F517C0823E61F018F4813EBC
:1008100031F00895833E49F0843E51F008950E94DE
:10082000070108950E94150208950E942701089566
:100830000E942A02089510927E010E9426030895C4
:1008400010927E010E943A030895E0ECF0E080816E
:100850008823ECF78091C6000000E0ECF0E0908186
:100860009923ECF76091C60070E090E00E9434029A
:1008700008950E94EC00089527E0829FC001112492
:10088000FC01E65AFE4F11821082138212821582F9
:100890001482168280E0089580912902813029F522
:1008A00095B1892785B96091840170E080E090E07E
:1008B0000E944F0620918501309186014091870169
:1008C000509188010E94A70518167CF01092290209
:1008D00084E085B961E085E690E00E94AA0781E0A6
:1008E00080937D0182E20E943C0480912A02813043
:1008F00021F595B1892785B96091090170E080E003
:1009000090E00E944F062091850130918601409130
:100910008701509188010E94FF06882374F010928D
:100920002A0260E085E690E00E94AA0710927D010D
:1009300082E085B982E20E943C040895EF92FF9222
:100940001F93CF93DF93CAE5D1E010E08E81882317
:1009500079F0E881F981309759F009958E818150BD
:100960008E838C819D81892B19F4812F0E943C04F8
:100970001F5F2796153051F7DF91CF911F91FF90A0
:10098000EF900895CF93C0E08C2F0E943C04CF5F7E
:10099000C530D1F781E792E0909389008093880079
:1009A0008CE08093810082E080936F00CF91089566
:1009B0001F920F920FB60F9211242F933F938F9394
:1009C0009F93AF93BF93EF93FF93EAE5F1E02DE799
:1009D00031E080819181892B91F082819381009710
:1009E00059F486818F5F868384819581009739F0E1
:1009F00001979383828303C0019793838283379601
:100A0000E217F30731F7FF91EF91BF91AF919F91FB
:100A10008F913F912F910F900FBE0F901F901895BF
:100A20000E949F000E94C2040E94AC0041E050E07E
:100A300060E070E083EF93E00E94F10244E650E052
:100A400060E070E083EC91E00E94F10241E050E050
:100A500060E070E088E490E00E94F10248EE53E02C
:100A600060E777E18EE493E00E94F10278940E94BF
:100A70009E04FDCF5058BB27AA270E9452050C9414
:100A8000C5060E94B70638F00E94BE0620F039F471
:100A90009F3F19F426F40C94B4060EF4E095E7FB9E
:100AA0000C94AE06E92F0E94D60658F3BA176207D7
:100AB00073078407950720F079F4A6F50C94F806DF
:100AC0000EF4E0950B2EBA2FA02D0B01B901900169
:100AD0000C01CA01A0011124FF27591B99F0593FAD
:100AE00050F4503E68F11A16F040A22F232F342FF5
:100AF0004427585FF3CF469537952795A795F04043
:100B00005395C9F77EF41F16BA0B620B730B840B57
:100B1000BAF09150A1F0FF0FBB1F661F771F881F0F
:100B2000C2F70EC0BA0F621F731F841F48F4879567
:100B300077956795B795F7959E3F08F0B0CF939559
:100B4000880F08F09927EE0F9795879508950E94D2
:100B50008A0608F481E008950E94C0050C94C50639
:100B60000E94BE0658F00E94B70640F029F45F3F8D
:100B700029F00C94AE0651110C94F9060C94B406AD
:100B80000E94D60668F39923B1F3552391F3951B80
:100B9000550BBB27AA2762177307840738F09F5F9E
:100BA0005F4F220F331F441FAA1FA9F335D00E2E0B
:100BB0003AF0E0E832D091505040E695001CCAF778
:100BC0002BD0FE2F29D0660F771F881FBB1F26173B
:100BD00037074807AB07B0E809F0BB0B802DBF0112
:100BE000FF2793585F4F3AF09E3F510578F00C94E1
:100BF000AE060C94F9065F3FE4F3983ED4F3869575
:100C000077956795B795F7959F5FC9F7880F911D01
:100C10009695879597F90895E1E0660F771F881FED
:100C2000BB1F621773078407BA0720F0621B730BA0
:100C3000840BBA0BEE1F88F7E09508950E94DE063C
:100C400088F09F5798F0B92F9927B751B0F0E1F08D
:100C5000660F771F881F991F1AF0BA95C9F714C03D
:100C6000B13091F00E94F806B1E008950C94F806B6
:100C7000672F782F8827B85F39F0B93FCCF3869576
:100C800077956795B395D9F73EF4909580957095D3
:100C900061957F4F8F4F9F4F0895E89409C097FB50
:100CA0003EF490958095709561957F4F8F4F9F4F43
:100CB0009923A9F0F92F96E9BB279395F695879587
:100CC00077956795B795F111F8CFFAF4BB0F11F44A
:100CD00060FF1BC06F5F7F4F8F4F9F4F16C08823F1
:100CE00011F096E911C0772321F09EE8872F762F27
:100CF00005C0662371F096E8862F70E060E02AF068
:100D00009A95660F771F881FDAF7880F9695879553
:100D100097F90895990F0008550FAA0BE0E8FEEF28
:100D200016161706E807F907C0F012161306E407AF
:100D3000F50798F0621B730B840B950B39F40A26A8
:100D400061F0232B242B252B21F408950A2609F486
:100D5000A140A6958FEF811D811D089597F99F678A
:100D600080E870E060E008959FEF80EC0895002433
:100D70000A941616170618060906089500240A9400
:100D800012161306140605060895092E0394000C86
:100D900011F4882352F0BB0F40F4BF2B11F460FF15
:100DA00004C06F5F7F4F8F4F9F4F089557FD90583E
:100DB000440F551F59F05F3F71F04795880F97FB1F
:100DC000991F61F09F3F79F08795089512161306D9
:100DD0001406551FF2CF4695F1DF08C01616170608
:100DE0001806991FF1CF869571056105089408953D
:100DF000E894BB2766277727CB0197F908950E94CF
:100E00008A0608F48FEF08950E9417070C94C50610
:100E10000E94B70638F00E94BE0620F0952311F01C
:100E20000C94AE060C94B40611240C94F9060E949E
:100E3000D60670F3959FC1F3950F50E0551F629F42
:100E4000F001729FBB27F00DB11D639FAA27F00D23
:100E5000B11DAA1F649F6627B00DA11D661F829F4A
:100E60002227B00DA11D621F739FB00DA11D621F2F
:100E7000839FA00D611D221F749F3327A00D611D4C
:100E8000231F849F600D211D822F762F6A2F11242E
:100E90009F5750409AF0F1F088234AF0EE0FFF1F61
:100EA000BB1F661F771F881F91505040A9F79E3FB8
:100EB000510580F00C94AE060C94F9065F3FE4F304
:100EC000983ED4F3869577956795B795F795E7950E
:100ED0009F5FC1F7FE2B880F911D9695879597F917
:100EE0000895A1E21A2EAA1BBB1BFD010DC0AA1F6B
:100EF000BB1FEE1FFF1FA217B307E407F50720F083
:100F0000A21BB30BE40BF50B661F771F881F991FFD
:100F10001A9469F760957095809590959B01AC0146
:100F2000BD01CF010895A29FB001B39FC001A39F4F
:100F3000700D811D1124911DB29F700D811D112412
:100F4000911D0895F999FECF92BD81BDF89A992718
:100F500080B50895262FF999FECF92BD81BDF89AEC
:100F6000019700B4021639F01FBA20BD0FB6F894ED
:0C0F7000FA9AF99A0FBE0895F894FFCF8A
:00000001FF
